:100000002BC06AC144C043C042C041C040C03FC0D1
:100010003EC03DC03CC03BC03AC039C038C037C00C
:1000200036C009021200010100801409040000001A
:10003000FF00000012011001FF00000881179F0C53
:100040000401000200010E03460061006200490045
:10005000530050000403090411241FBECFE5D2E071
:10006000DEBFCDBF10E0A0E6B0E0ECEAF7E002C0F2
:1000700005900D92A236B107D9F720E0A2E6B0E0D4
:1000800001C01D92A53AB207E1F774D38DC3B8CF72
:10009000CF93DF9360918B00635067FD85C08091A3
:1000A0008800CCE0D0E0C81BD109C157DF4F809158
:1000B00087008D3209F0B4C0683009F073C083EC5A
:1000C00080937B008AE580936100109262008881B2
:1000D000807671F0CE015AD28F3F09F45BC09F81C8
:1000E00091115EC09E81981708F05AC0892F58C0A0
:1000F0002A8110928400998191110AC01092850082
:1001000024E830E082E030938A0020938900E7CF32
:10011000953029F420938C0024E830E0F4CF963019
:1001200049F59B81913059F484E390E090938A00E3
:100130008093890082E190E490936200D0CF923066
:1001400019F482E290E0F2CF9330A9F7211108C0B0
:1001500084E590E090938A008093890084E0EBCF5F
:10016000223049F786E490E090938A0080938900DA
:100170008EE0E1CF983051F0993019F420938E0041
:10018000CBCF81E09A3041F280E0C6CF2EE830E05C
:1001900081E0B9CF988197FD8E8190E890936200BD
:1001A0008093600010928B008091610084FF2BC0CF
:1001B000C0916000CF3F39F16C2FC93008F068E082
:1001C0008C2F861B8093600080917B0098E88927A4
:1001D00080937B00CC2359F08091620087FF32C06E
:1001E0008CE790E065D2C82F893008F050C06C2FA2
:1001F0008CE790E06DD0CC5FCC3019F08FEF80931E
:100200006000C093610084E199B3917831F481502A
:10021000D9F710928C0010928600DF91CF9108954B
:100220008091620087FFBECFCE015BD28F3F21F469
:100230008EE180936100B6CF882309F4B3CF10928A
:100240006000B0CF4091890050918A0086FF16C0AF
:10025000ACE7B0E0FA01962F84918D9331969150DE
:10026000D9F72FEF260F30E02F5F3F4F240F351FB8
:1002700030938A0020938900C62FB9CFDA01ECE7CA
:10028000F0E0962F8D9181939150E1F7EACF8FEFB7
:1002900080936000CEE1B5CF85B7826085BF8BB714
:1002A00080648BBF0895A82FB92F80E090E041E0D3
:1002B00050EA609530E009C02D9182279795879587
:1002C00010F084279527305EC8F36F5FA8F3089578
:1002D000EADF8D939D930895CF93CFB7CF93DF93AC
:1002E000C395C89BE9F7C89B11C0C89B0FC0C89BAA
:1002F0000DC0C89B0BC0C89B09C0C89B07C0C89B4A
:1003000005C0C89B03C0C89B01C081C06F93C0914A
:100310008800DD27C157DF4F2F9320E400C065E040
:10032000C89B03C02F916F91DECF0F931F934F9304
:1003300045E55F9355E53F933BE010E809B301784D
:100340002EC06A95C9F03150D8F109B30178011374
:100350000BC008942795299320E4555500F46A951D
:1003600069F701E069B30BC0102F66E02695299369
:1003700020E4555518F3E2CF0FEF69B30000162FB4
:10038000455500F0404066E011780030E2F221F07F
:10039000000009B3017803C009B30178A9F0011383
:1003A00009C00894279568F200C06A95A9F700E093
:1003B00069B3E5CF102F66E0269528F20000ECCF58
:1003C00010E41ABF002717C03B503195C31BD04023
:1003D00010E41ABF0881033CF9F00B34E9F02091D6
:1003E00086001981110F1213EDCF093651F10D322C
:1003F00011F0013E39F700938D003F915F914F91CD
:100400001F910F912F916F91CAB7C6FD69CFDF91F0
:10041000CF91CFBFCF91189520918D00222369F302
:1004200010918B00112329F534302AF130938B0081
:1004300020938700109188003BE0311B30938800A7
:100440001AC000918B000130A4F40AE530916100DC
:1004500034FD12C000936100CBE7D0E011C0052746
:1004600010E000C00BBB19C0052710E0221F00C020
:100470001DC04AE502C032ED432FC4E1D0E032E0B6
:100480001AB31168D89A0BB31ABB51E820E869E493
:1004900020FF05270BBB2795179500C000001C3FC8
:1004A000F0F66695A8F7A1F720FF05270BBB279567
:1004B000179500001C3FC0F629913A9541F70E7739
:1004C00010918C00110F0BBBC651D04011F010934E
:1004D000860010E41ABF01601AB31E77402F4E77D2
:1004E00055E05A95F1F70BBB1ABB4BBB86CFFC010D
:1004F000DB01AC014C5F5F4F619128E030E080E8A8
:1005000090E0762F782309F0DE9A70917A00072E1A
:1005100000C000000A94E1F7DC9A70917A00072E7F
:1005200000C000000A94E1F7990FCD999F5FDE9813
:10053000DC9886952150310921F79D934E175F076E
:10054000D9F6089580917600909177009C012F5FF5
:100550003F4F30937700209376002091730027FF60
:1005600002C0880F991F80FD0FC020936F00292FB4
:1005700026952093700096958795809371006BE681
:1005800070E08FE690E0B3CF2860EFCFFC0181816F
:10059000811111C0A3E6B0E0CF01089621912D93FF
:1005A000E817F907D9F783E690E090938A008093E3
:1005B000890088E008954481A42FB0E0813059F487
:1005C0008C918093630083E690E090938A008093FF
:1005D000890081E008959281823019F49C9380E033
:1005E0000895592F577021E030E001C0220F5A952D
:1005F000EAF7833029F420958C9128232C93EFCFB0
:10060000843019F48C91282BF9CF853069F49093BC
:100610007A0022E041112AE09AB39A659ABB8BB323
:10062000857A822B8BBBDBCF863041F4DB9A8BB390
:10063000857A8BBB8AB3857A8ABBD1CF2BB3222331
:1006400071F2873069F4CF0163E670E002964FDF04
:1006500083E690E090938A008093890084E0089577
:10066000883031F490937900838180937800B7CFFC
:10067000248135813093770020937600893029F4E6
:1006800080E2809373008FEF08958B3011F480EA3D
:10069000F8CF2281338130937500209374008A3023
:1006A00011F480E4EECF8C3009F099CF80ECE9CFE3
:1006B000EF92FF921F93CF93DF93162FEC017C01F3
:1006C000E60EF11CCE15DF0539F4812FDF91CF91B5
:1006D0001F91FF90EF90089535DF80916E00899310
:1006E000F1CFDF92EF92FF920F931F93CF93DF939F
:1006F000EC018C01060F111D30E6D32EC017D10777
:1007000049F481E0DF91CF911F910F91FF90EF901D
:10071000DF90089589918093720014DF80916F00BB
:100720008D2580936F00F12CE12C809174009091C5
:100730007500E816F90610F76BE670E08FE690E0BA
:10074000D6DE8091720090916E00891308C090915E
:100750007900891721F0909178008913CFCF80918B
:100760007A0090E025E0880F991F2A95E1F7E80EBE
:10077000F91EDBCF88E19EE00FB6F894A89581BD05
:100780000FBE91BD89DDD09A80E0815029F4D098C8
:100790007894A8957DDCFDCFA895E7E8F3E1319743
:0C07A000F1F700C00000F1CFF894FFCF8B
:0207AC00FF5AF2
:00000001FF
